{"abi":[{"type":"constructor","inputs":[],"stateMutability":"nonpayable"},{"type":"function","name":"eip712Domain","inputs":[],"outputs":[{"name":"fields","type":"bytes1","internalType":"bytes1"},{"name":"name","type":"string","internalType":"string"},{"name":"version","type":"string","internalType":"string"},{"name":"chainId","type":"uint256","internalType":"uint256"},{"name":"verifyingContract","type":"address","internalType":"address"},{"name":"salt","type":"bytes32","internalType":"bytes32"},{"name":"extensions","type":"uint256[]","internalType":"uint256[]"}],"stateMutability":"view"},{"type":"function","name":"validateSig","inputs":[{"name":"_mail","type":"tuple","internalType":"struct SigVerify.Mail","components":[{"name":"from","type":"tuple","internalType":"struct SigVerify.Person","components":[{"name":"name","type":"string","internalType":"string"},{"name":"wallet","type":"address","internalType":"address"}]},{"name":"to","type":"tuple","internalType":"struct SigVerify.Person","components":[{"name":"name","type":"string","internalType":"string"},{"name":"wallet","type":"address","internalType":"address"}]},{"name":"contents","type":"string","internalType":"string"}]},{"name":"_sig","type":"bytes","internalType":"bytes"},{"name":"_signer","type":"address","internalType":"address"}],"outputs":[{"name":"","type":"bool","internalType":"bool"}],"stateMutability":"view"},{"type":"event","name":"EIP712DomainChanged","inputs":[],"anonymous":false},{"type":"error","name":"ECDSAInvalidSignature","inputs":[]},{"type":"error","name":"ECDSAInvalidSignatureLength","inputs":[{"name":"length","type":"uint256","internalType":"uint256"}]},{"type":"error","name":"ECDSAInvalidSignatureS","inputs":[{"name":"s","type":"bytes32","internalType":"bytes32"}]},{"type":"error","name":"InvalidShortString","inputs":[]},{"type":"error","name":"StringTooLong","inputs":[{"name":"str","type":"string","internalType":"string"}]}],"bytecode":{"object":"0x61016060405234801561001157600080fd5b506040805180820182526009815268115d1a195c93585a5b60ba1b602080830191909152825180840190935260018352603160f81b9083015290610056826000610100565b61012052610065816001610100565b61014052815160208084019190912060e052815190820120610100524660a0526100f260e05161010051604080517f8b73c3c69bb8fe3d512ecc4cf759cc79239f7b179b0ffacaa9a75d522b39400f60208201529081019290925260608201524660808201523060a082015260009060c00160405160208183030381529060405280519060200120905090565b60805250503060c052610349565b600060208351101561011c5761011583610133565b905061012d565b816101278482610219565b5060ff90505b92915050565b600080829050601f81511115610167578260405163305a27a960e01b815260040161015e91906102d7565b60405180910390fd5b805161017282610325565b179392505050565b634e487b7160e01b600052604160045260246000fd5b600181811c908216806101a457607f821691505b6020821081036101c457634e487b7160e01b600052602260045260246000fd5b50919050565b601f82111561021457806000526020600020601f840160051c810160208510156101f15750805b601f840160051c820191505b8181101561021157600081556001016101fd565b50505b505050565b81516001600160401b038111156102325761023261017a565b610246816102408454610190565b846101ca565b6020601f82116001811461027a57600083156102625750848201515b600019600385901b1c1916600184901b178455610211565b600084815260208120601f198516915b828110156102aa578785015182556020948501946001909201910161028a565b50848210156102c85786840151600019600387901b60f8161c191681555b50505050600190811b01905550565b602081526000825180602084015260005b8181101561030557602081860181015160408684010152016102e8565b506000604082850101526040601f19601f83011684010191505092915050565b805160208083015191908110156101c45760001960209190910360031b1b16919050565b60805160a05160c05160e051610100516101205161014051610aa46103a360003960006102900152600061025e0152600061039001526000610368015260006102c3015260006102ed015260006103170152610aa46000f3fe608060405234801561001057600080fd5b50600436106100365760003560e01c80633871cb191461003b57806384b0196e14610063575b600080fd5b61004e61004936600461083b565b61007e565b60405190151581526020015b60405180910390f35b61006b610149565b60405161005a9796959493929190610986565b60008061008e856000015161018f565b9050600061009f866020015161018f565b905060007fa0cedeb2dc280ba39b857546d74f5549c3a1d7bdc2dd96bf881f76108e23dac283838960400151805190602001206040516020016100fb949392919093845260208401929092526040830152606082015260800190565b6040516020818303038152906040529050600061011e82805190602001206101fa565b9050600061012c828961022d565b6001600160a01b0390811690881614955050505050509392505050565b60006060806000806000606061015d610257565b610165610289565b60408051600080825260208201909252600f60f81b9b939a50919850469750309650945092509050565b8051805160209182012091810151604080517fb9d8c78acf9b987311de6c7b45bb6a9c8e1bf361fa7fd3467a2163f994c7950081850152808201949094526001600160a01b039091166060808501919091528151808503909101815260809093019052815191012090565b60006102276102076102b6565b8360405161190160f01b8152600281019290925260228201526042902090565b92915050565b60008060008061023d86866103e1565b92509250925061024d828261042e565b5090949350505050565b60606102847f000000000000000000000000000000000000000000000000000000000000000060006104f0565b905090565b60606102847f000000000000000000000000000000000000000000000000000000000000000060016104f0565b6000306001600160a01b037f00000000000000000000000000000000000000000000000000000000000000001614801561030f57507f000000000000000000000000000000000000000000000000000000000000000046145b1561033957507f000000000000000000000000000000000000000000000000000000000000000090565b610284604080517f8b73c3c69bb8fe3d512ecc4cf759cc79239f7b179b0ffacaa9a75d522b39400f60208201527f0000000000000000000000000000000000000000000000000000000000000000918101919091527f000000000000000000000000000000000000000000000000000000000000000060608201524660808201523060a082015260009060c00160405160208183030381529060405280519060200120905090565b6000806000835160410361041b5760208401516040850151606086015160001a61040d8882858561059b565b955095509550505050610427565b50508151600091506002905b9250925092565b600082600381111561044257610442610a1e565b0361044b575050565b600182600381111561045f5761045f610a1e565b0361047d5760405163f645eedf60e01b815260040160405180910390fd5b600282600381111561049157610491610a1e565b036104b75760405163fce698f760e01b8152600481018290526024015b60405180910390fd5b60038260038111156104cb576104cb610a1e565b036104ec576040516335e2f38360e21b8152600481018290526024016104ae565b5050565b606060ff831461050a576105038361066a565b9050610227565b81805461051690610a34565b80601f016020809104026020016040519081016040528092919081815260200182805461054290610a34565b801561058f5780601f106105645761010080835404028352916020019161058f565b820191906000526020600020905b81548152906001019060200180831161057257829003601f168201915b50505050509050610227565b600080807f7fffffffffffffffffffffffffffffff5d576e7357a4501ddfe92f46681b20a08411156105d65750600091506003905082610660565b604080516000808252602082018084528a905260ff891692820192909252606081018790526080810186905260019060a0016020604051602081039080840390855afa15801561062a573d6000803e3d6000fd5b5050604051601f1901519150506001600160a01b03811661065657506000925060019150829050610660565b9250600091508190505b9450945094915050565b60606000610677836106a9565b604080516020808252818301909252919250600091906020820181803683375050509182525060208101929092525090565b600060ff8216601f81111561022757604051632cd44ac360e21b815260040160405180910390fd5b634e487b7160e01b600052604160045260246000fd5b6040516060810167ffffffffffffffff8111828210171561070a5761070a6106d1565b60405290565b600082601f83011261072157600080fd5b81356020830160008067ffffffffffffffff841115610742576107426106d1565b50604051601f19601f85018116603f0116810181811067ffffffffffffffff82111715610771576107716106d1565b60405283815290508082840187101561078957600080fd5b838360208301376000602085830101528094505050505092915050565b80356001600160a01b03811681146107bd57600080fd5b919050565b6000604082840312156107d457600080fd5b6040805190810167ffffffffffffffff811182821017156107f7576107f76106d1565b604052905080823567ffffffffffffffff81111561081457600080fd5b61082085828601610710565b82525061082f602084016107a6565b60208201525092915050565b60008060006060848603121561085057600080fd5b833567ffffffffffffffff81111561086757600080fd5b84016060818703121561087957600080fd5b6108816106e7565b813567ffffffffffffffff81111561089857600080fd5b6108a4888285016107c2565b825250602082013567ffffffffffffffff8111156108c157600080fd5b6108cd888285016107c2565b602083015250604082013567ffffffffffffffff8111156108ed57600080fd5b6108f988828501610710565b604083015250935050602084013567ffffffffffffffff81111561091c57600080fd5b61092886828701610710565b925050610937604085016107a6565b90509250925092565b6000815180845260005b818110156109665760208185018101518683018201520161094a565b506000602082860101526020601f19601f83011685010191505092915050565b60ff60f81b8816815260e0602082015260006109a560e0830189610940565b82810360408401526109b78189610940565b606084018890526001600160a01b038716608085015260a0840186905283810360c08501528451808252602080870193509091019060005b81811015610a0d5783518352602093840193909201916001016109ef565b50909b9a5050505050505050505050565b634e487b7160e01b600052602160045260246000fd5b600181811c90821680610a4857607f821691505b602082108103610a6857634e487b7160e01b600052602260045260246000fd5b5091905056fea2646970667358221220b941870f6b46a0554b60a6705b724de07c79dc7944458a28cf6854847b939a7564736f6c634300081a0033","linkReferences":{}},"methodIdentifiers":{"eip712Domain()":"84b0196e","validateSig(((string,address),(string,address),string),bytes,address)":"3871cb19"},"id":34}